{
	"0-Toygames/mapping.sol": {
		"Mapping": {
			"abi": [
				{
					"inputs": [],
					"stateMutability": "nonpayable",
					"type": "constructor"
				},
				{
					"inputs": [],
					"name": "deleteEntry",
					"outputs": [],
					"stateMutability": "nonpayable",
					"type": "function"
				},
				{
					"inputs": [],
					"name": "functionCall",
					"outputs": [],
					"stateMutability": "nonpayable",
					"type": "function"
				},
				{
					"inputs": [
						{
							"internalType": "address",
							"name": "_address",
							"type": "address"
						}
					],
					"name": "functionCalls",
					"outputs": [
						{
							"internalType": "uint256",
							"name": "",
							"type": "uint256"
						}
					],
					"stateMutability": "view",
					"type": "function"
				}
			],
			"devdoc": {
				"kind": "dev",
				"methods": {},
				"version": 1
			},
			"evm": {
				"assembly": "    /* \"0-Toygames/mapping.sol\":60:571  contract Mapping {\r... */\n  mstore(0x40, 0x80)\n    /* \"0-Toygames/mapping.sol\":142:259  constructor() {\r... */\n  callvalue\n  dup1\n  iszero\n  tag_1\n  jumpi\n  0x00\n  dup1\n  revert\ntag_1:\n  pop\n    /* \"0-Toygames/mapping.sol\":249:251  10 */\n  0x0a\n    /* \"0-Toygames/mapping.sol\":220:234  _functionCalls */\n  0x00\n    /* \"0-Toygames/mapping.sol\":220:246  _functionCalls[msg.sender] */\n  dup1\n    /* \"0-Toygames/mapping.sol\":235:245  msg.sender */\n  caller\n    /* \"0-Toygames/mapping.sol\":220:246  _functionCalls[msg.sender] */\n  0xffffffffffffffffffffffffffffffffffffffff\n  and\n  0xffffffffffffffffffffffffffffffffffffffff\n  and\n  dup2\n  mstore\n  0x20\n  add\n  swap1\n  dup2\n  mstore\n  0x20\n  add\n  0x00\n  keccak256\n    /* \"0-Toygames/mapping.sol\":220:251  _functionCalls[msg.sender] = 10 */\n  dup2\n  swap1\n  sstore\n  pop\n    /* \"0-Toygames/mapping.sol\":60:571  contract Mapping {\r... */\n  dataSize(sub_0)\n  dup1\n  dataOffset(sub_0)\n  0x00\n  codecopy\n  0x00\n  return\nstop\n\nsub_0: assembly {\n        /* \"0-Toygames/mapping.sol\":60:571  contract Mapping {\r... */\n      mstore(0x40, 0x80)\n      callvalue\n      dup1\n      iszero\n      tag_1\n      jumpi\n      0x00\n      dup1\n      revert\n    tag_1:\n      pop\n      jumpi(tag_2, lt(calldatasize, 0x04))\n      shr(0xe0, calldataload(0x00))\n      dup1\n      0x2a773aaa\n      eq\n      tag_3\n      jumpi\n      dup1\n      0x826df326\n      eq\n      tag_4\n      jumpi\n      dup1\n      0xdab08f75\n      eq\n      tag_5\n      jumpi\n    tag_2:\n      0x00\n      dup1\n      revert\n        /* \"0-Toygames/mapping.sol\":481:566  function deleteEntry() external {\r... */\n    tag_3:\n      tag_6\n      tag_7\n      jump\t// in\n    tag_6:\n      stop\n        /* \"0-Toygames/mapping.sol\":267:385  function functionCalls(address _address) public view returns(uint)  {\r... */\n    tag_4:\n      tag_8\n      0x04\n      dup1\n      calldatasize\n      sub\n      dup2\n      add\n      swap1\n      tag_9\n      swap2\n      swap1\n      tag_10\n      jump\t// in\n    tag_9:\n      tag_11\n      jump\t// in\n    tag_8:\n      mload(0x40)\n      tag_12\n      swap2\n      swap1\n      tag_13\n      jump\t// in\n    tag_12:\n      mload(0x40)\n      dup1\n      swap2\n      sub\n      swap1\n      return\n        /* \"0-Toygames/mapping.sol\":393:473  function functionCall() external {\r... */\n    tag_5:\n      tag_14\n      tag_15\n      jump\t// in\n    tag_14:\n      stop\n        /* \"0-Toygames/mapping.sol\":481:566  function deleteEntry() external {\r... */\n    tag_7:\n        /* \"0-Toygames/mapping.sol\":531:545  _functionCalls */\n      0x00\n        /* \"0-Toygames/mapping.sol\":531:557  _functionCalls[msg.sender] */\n      dup1\n        /* \"0-Toygames/mapping.sol\":546:556  msg.sender */\n      caller\n        /* \"0-Toygames/mapping.sol\":531:557  _functionCalls[msg.sender] */\n      0xffffffffffffffffffffffffffffffffffffffff\n      and\n      0xffffffffffffffffffffffffffffffffffffffff\n      and\n      dup2\n      mstore\n      0x20\n      add\n      swap1\n      dup2\n      mstore\n      0x20\n      add\n      0x00\n      keccak256\n        /* \"0-Toygames/mapping.sol\":524:558  delete(_functionCalls[msg.sender]) */\n      0x00\n      swap1\n      sstore\n        /* \"0-Toygames/mapping.sol\":481:566  function deleteEntry() external {\r... */\n      jump\t// out\n        /* \"0-Toygames/mapping.sol\":267:385  function functionCalls(address _address) public view returns(uint)  {\r... */\n    tag_11:\n        /* \"0-Toygames/mapping.sol\":328:332  uint */\n      0x00\n        /* \"0-Toygames/mapping.sol\":353:367  _functionCalls */\n      dup1\n        /* \"0-Toygames/mapping.sol\":353:377  _functionCalls[_address] */\n      0x00\n        /* \"0-Toygames/mapping.sol\":368:376  _address */\n      dup4\n        /* \"0-Toygames/mapping.sol\":353:377  _functionCalls[_address] */\n      0xffffffffffffffffffffffffffffffffffffffff\n      and\n      0xffffffffffffffffffffffffffffffffffffffff\n      and\n      dup2\n      mstore\n      0x20\n      add\n      swap1\n      dup2\n      mstore\n      0x20\n      add\n      0x00\n      keccak256\n      sload\n        /* \"0-Toygames/mapping.sol\":346:377  return _functionCalls[_address] */\n      swap1\n      pop\n        /* \"0-Toygames/mapping.sol\":267:385  function functionCalls(address _address) public view returns(uint)  {\r... */\n      swap2\n      swap1\n      pop\n      jump\t// out\n        /* \"0-Toygames/mapping.sol\":393:473  function functionCall() external {\r... */\n    tag_15:\n        /* \"0-Toygames/mapping.sol\":437:451  _functionCalls */\n      0x00\n        /* \"0-Toygames/mapping.sol\":437:463  _functionCalls[msg.sender] */\n      dup1\n        /* \"0-Toygames/mapping.sol\":452:462  msg.sender */\n      caller\n        /* \"0-Toygames/mapping.sol\":437:463  _functionCalls[msg.sender] */\n      0xffffffffffffffffffffffffffffffffffffffff\n      and\n      0xffffffffffffffffffffffffffffffffffffffff\n      and\n      dup2\n      mstore\n      0x20\n      add\n      swap1\n      dup2\n      mstore\n      0x20\n      add\n      0x00\n      keccak256\n      0x00\n        /* \"0-Toygames/mapping.sol\":437:465  _functionCalls[msg.sender]++ */\n      dup2\n      sload\n      dup1\n      swap3\n      swap2\n      swap1\n      tag_19\n      swap1\n      tag_20\n      jump\t// in\n    tag_19:\n      swap2\n      swap1\n      pop\n      sstore\n      pop\n        /* \"0-Toygames/mapping.sol\":393:473  function functionCall() external {\r... */\n      jump\t// out\n        /* \"#utility.yul\":7:146   */\n    tag_22:\n        /* \"#utility.yul\":53:58   */\n      0x00\n        /* \"#utility.yul\":91:97   */\n      dup2\n        /* \"#utility.yul\":78:98   */\n      calldataload\n        /* \"#utility.yul\":69:98   */\n      swap1\n      pop\n        /* \"#utility.yul\":107:140   */\n      tag_24\n        /* \"#utility.yul\":134:139   */\n      dup2\n        /* \"#utility.yul\":107:140   */\n      tag_25\n      jump\t// in\n    tag_24:\n        /* \"#utility.yul\":7:146   */\n      swap3\n      swap2\n      pop\n      pop\n      jump\t// out\n        /* \"#utility.yul\":152:481   */\n    tag_10:\n        /* \"#utility.yul\":211:217   */\n      0x00\n        /* \"#utility.yul\":260:262   */\n      0x20\n        /* \"#utility.yul\":248:257   */\n      dup3\n        /* \"#utility.yul\":239:246   */\n      dup5\n        /* \"#utility.yul\":235:258   */\n      sub\n        /* \"#utility.yul\":231:263   */\n      slt\n        /* \"#utility.yul\":228:347   */\n      iszero\n      tag_27\n      jumpi\n        /* \"#utility.yul\":266:345   */\n      tag_28\n      tag_29\n      jump\t// in\n    tag_28:\n        /* \"#utility.yul\":228:347   */\n    tag_27:\n        /* \"#utility.yul\":386:387   */\n      0x00\n        /* \"#utility.yul\":411:464   */\n      tag_30\n        /* \"#utility.yul\":456:463   */\n      dup5\n        /* \"#utility.yul\":447:453   */\n      dup3\n        /* \"#utility.yul\":436:445   */\n      dup6\n        /* \"#utility.yul\":432:454   */\n      add\n        /* \"#utility.yul\":411:464   */\n      tag_22\n      jump\t// in\n    tag_30:\n        /* \"#utility.yul\":401:464   */\n      swap2\n      pop\n        /* \"#utility.yul\":357:474   */\n      pop\n        /* \"#utility.yul\":152:481   */\n      swap3\n      swap2\n      pop\n      pop\n      jump\t// out\n        /* \"#utility.yul\":487:605   */\n    tag_31:\n        /* \"#utility.yul\":574:598   */\n      tag_33\n        /* \"#utility.yul\":592:597   */\n      dup2\n        /* \"#utility.yul\":574:598   */\n      tag_34\n      jump\t// in\n    tag_33:\n        /* \"#utility.yul\":569:572   */\n      dup3\n        /* \"#utility.yul\":562:599   */\n      mstore\n        /* \"#utility.yul\":487:605   */\n      pop\n      pop\n      jump\t// out\n        /* \"#utility.yul\":611:833   */\n    tag_13:\n        /* \"#utility.yul\":704:708   */\n      0x00\n        /* \"#utility.yul\":742:744   */\n      0x20\n        /* \"#utility.yul\":731:740   */\n      dup3\n        /* \"#utility.yul\":727:745   */\n      add\n        /* \"#utility.yul\":719:745   */\n      swap1\n      pop\n        /* \"#utility.yul\":755:826   */\n      tag_36\n        /* \"#utility.yul\":823:824   */\n      0x00\n        /* \"#utility.yul\":812:821   */\n      dup4\n        /* \"#utility.yul\":808:825   */\n      add\n        /* \"#utility.yul\":799:805   */\n      dup5\n        /* \"#utility.yul\":755:826   */\n      tag_31\n      jump\t// in\n    tag_36:\n        /* \"#utility.yul\":611:833   */\n      swap3\n      swap2\n      pop\n      pop\n      jump\t// out\n        /* \"#utility.yul\":920:1016   */\n    tag_39:\n        /* \"#utility.yul\":957:964   */\n      0x00\n        /* \"#utility.yul\":986:1010   */\n      tag_41\n        /* \"#utility.yul\":1004:1009   */\n      dup3\n        /* \"#utility.yul\":986:1010   */\n      tag_42\n      jump\t// in\n    tag_41:\n        /* \"#utility.yul\":975:1010   */\n      swap1\n      pop\n        /* \"#utility.yul\":920:1016   */\n      swap2\n      swap1\n      pop\n      jump\t// out\n        /* \"#utility.yul\":1022:1148   */\n    tag_42:\n        /* \"#utility.yul\":1059:1066   */\n      0x00\n        /* \"#utility.yul\":1099:1141   */\n      0xffffffffffffffffffffffffffffffffffffffff\n        /* \"#utility.yul\":1092:1097   */\n      dup3\n        /* \"#utility.yul\":1088:1142   */\n      and\n        /* \"#utility.yul\":1077:1142   */\n      swap1\n      pop\n        /* \"#utility.yul\":1022:1148   */\n      swap2\n      swap1\n      pop\n      jump\t// out\n        /* \"#utility.yul\":1154:1231   */\n    tag_34:\n        /* \"#utility.yul\":1191:1198   */\n      0x00\n        /* \"#utility.yul\":1220:1225   */\n      dup2\n        /* \"#utility.yul\":1209:1225   */\n      swap1\n      pop\n        /* \"#utility.yul\":1154:1231   */\n      swap2\n      swap1\n      pop\n      jump\t// out\n        /* \"#utility.yul\":1237:1470   */\n    tag_20:\n        /* \"#utility.yul\":1276:1279   */\n      0x00\n        /* \"#utility.yul\":1299:1323   */\n      tag_46\n        /* \"#utility.yul\":1317:1322   */\n      dup3\n        /* \"#utility.yul\":1299:1323   */\n      tag_34\n      jump\t// in\n    tag_46:\n        /* \"#utility.yul\":1290:1323   */\n      swap2\n      pop\n        /* \"#utility.yul\":1345:1411   */\n      0xffffffffffffffffffffffffffffffffffffffffffffffffffffffffffffffff\n        /* \"#utility.yul\":1338:1343   */\n      dup3\n        /* \"#utility.yul\":1335:1412   */\n      eq\n        /* \"#utility.yul\":1332:1435   */\n      iszero\n      tag_47\n      jumpi\n        /* \"#utility.yul\":1415:1433   */\n      tag_48\n      tag_49\n      jump\t// in\n    tag_48:\n        /* \"#utility.yul\":1332:1435   */\n    tag_47:\n        /* \"#utility.yul\":1462:1463   */\n      0x01\n        /* \"#utility.yul\":1455:1460   */\n      dup3\n        /* \"#utility.yul\":1451:1464   */\n      add\n        /* \"#utility.yul\":1444:1464   */\n      swap1\n      pop\n        /* \"#utility.yul\":1237:1470   */\n      swap2\n      swap1\n      pop\n      jump\t// out\n        /* \"#utility.yul\":1476:1656   */\n    tag_49:\n        /* \"#utility.yul\":1524:1601   */\n      0x4e487b7100000000000000000000000000000000000000000000000000000000\n        /* \"#utility.yul\":1521:1522   */\n      0x00\n        /* \"#utility.yul\":1514:1602   */\n      mstore\n        /* \"#utility.yul\":1621:1625   */\n      0x11\n        /* \"#utility.yul\":1618:1619   */\n      0x04\n        /* \"#utility.yul\":1611:1626   */\n      mstore\n        /* \"#utility.yul\":1645:1649   */\n      0x24\n        /* \"#utility.yul\":1642:1643   */\n      0x00\n        /* \"#utility.yul\":1635:1650   */\n      revert\n        /* \"#utility.yul\":1785:1902   */\n    tag_29:\n        /* \"#utility.yul\":1894:1895   */\n      0x00\n        /* \"#utility.yul\":1891:1892   */\n      dup1\n        /* \"#utility.yul\":1884:1896   */\n      revert\n        /* \"#utility.yul\":1908:2030   */\n    tag_25:\n        /* \"#utility.yul\":1981:2005   */\n      tag_55\n        /* \"#utility.yul\":1999:2004   */\n      dup2\n        /* \"#utility.yul\":1981:2005   */\n      tag_39\n      jump\t// in\n    tag_55:\n        /* \"#utility.yul\":1974:1979   */\n      dup2\n        /* \"#utility.yul\":1971:2006   */\n      eq\n        /* \"#utility.yul\":1961:2024   */\n      tag_56\n      jumpi\n        /* \"#utility.yul\":2020:2021   */\n      0x00\n        /* \"#utility.yul\":2017:2018   */\n      dup1\n        /* \"#utility.yul\":2010:2022   */\n      revert\n        /* \"#utility.yul\":1961:2024   */\n    tag_56:\n        /* \"#utility.yul\":1908:2030   */\n      pop\n      jump\t// out\n\n    auxdata: 0xa26469706673582212202c0c413a0c23404d033b112dcb1e6950ae81f2306d12d00f76cde6c76bdcc5a264736f6c63430008070033\n}\n",
				"bytecode": {
					"linkReferences": {},
					"object": "608060405234801561001057600080fd5b50600a6000803373ffffffffffffffffffffffffffffffffffffffff1673ffffffffffffffffffffffffffffffffffffffff168152602001908152602001600020819055506102de806100646000396000f3fe608060405234801561001057600080fd5b50600436106100415760003560e01c80632a773aaa14610046578063826df32614610050578063dab08f7514610080575b600080fd5b61004e61008a565b005b61006a60048036038101906100659190610181565b6100ce565b60405161007791906101bd565b60405180910390f35b610088610116565b005b6000803373ffffffffffffffffffffffffffffffffffffffff1673ffffffffffffffffffffffffffffffffffffffff16815260200190815260200160002060009055565b60008060008373ffffffffffffffffffffffffffffffffffffffff1673ffffffffffffffffffffffffffffffffffffffff168152602001908152602001600020549050919050565b6000803373ffffffffffffffffffffffffffffffffffffffff1673ffffffffffffffffffffffffffffffffffffffff168152602001908152602001600020600081548092919061016590610214565b9190505550565b60008135905061017b81610291565b92915050565b6000602082840312156101975761019661028c565b5b60006101a58482850161016c565b91505092915050565b6101b78161020a565b82525050565b60006020820190506101d260008301846101ae565b92915050565b60006101e3826101ea565b9050919050565b600073ffffffffffffffffffffffffffffffffffffffff82169050919050565b6000819050919050565b600061021f8261020a565b91507fffffffffffffffffffffffffffffffffffffffffffffffffffffffffffffffff8214156102525761025161025d565b5b600182019050919050565b7f4e487b7100000000000000000000000000000000000000000000000000000000600052601160045260246000fd5b600080fd5b61029a816101d8565b81146102a557600080fd5b5056fea26469706673582212202c0c413a0c23404d033b112dcb1e6950ae81f2306d12d00f76cde6c76bdcc5a264736f6c63430008070033",
					"opcodes": "PUSH1 0x80 PUSH1 0x40 MSTORE CALLVALUE DUP1 ISZERO PUSH2 0x10 JUMPI PUSH1 0x0 DUP1 REVERT JUMPDEST POP PUSH1 0xA PUSH1 0x0 DUP1 CALLER PUSH20 0xFFFFFFFFFFFFFFFFFFFFFFFFFFFFFFFFFFFFFFFF AND PUSH20 0xFFFFFFFFFFFFFFFFFFFFFFFFFFFFFFFFFFFFFFFF AND DUP2 MSTORE PUSH1 0x20 ADD SWAP1 DUP2 MSTORE PUSH1 0x20 ADD PUSH1 0x0 KECCAK256 DUP2 SWAP1 SSTORE POP PUSH2 0x2DE DUP1 PUSH2 0x64 PUSH1 0x0 CODECOPY PUSH1 0x0 RETURN INVALID PUSH1 0x80 PUSH1 0x40 MSTORE CALLVALUE DUP1 ISZERO PUSH2 0x10 JUMPI PUSH1 0x0 DUP1 REVERT JUMPDEST POP PUSH1 0x4 CALLDATASIZE LT PUSH2 0x41 JUMPI PUSH1 0x0 CALLDATALOAD PUSH1 0xE0 SHR DUP1 PUSH4 0x2A773AAA EQ PUSH2 0x46 JUMPI DUP1 PUSH4 0x826DF326 EQ PUSH2 0x50 JUMPI DUP1 PUSH4 0xDAB08F75 EQ PUSH2 0x80 JUMPI JUMPDEST PUSH1 0x0 DUP1 REVERT JUMPDEST PUSH2 0x4E PUSH2 0x8A JUMP JUMPDEST STOP JUMPDEST PUSH2 0x6A PUSH1 0x4 DUP1 CALLDATASIZE SUB DUP2 ADD SWAP1 PUSH2 0x65 SWAP2 SWAP1 PUSH2 0x181 JUMP JUMPDEST PUSH2 0xCE JUMP JUMPDEST PUSH1 0x40 MLOAD PUSH2 0x77 SWAP2 SWAP1 PUSH2 0x1BD JUMP JUMPDEST PUSH1 0x40 MLOAD DUP1 SWAP2 SUB SWAP1 RETURN JUMPDEST PUSH2 0x88 PUSH2 0x116 JUMP JUMPDEST STOP JUMPDEST PUSH1 0x0 DUP1 CALLER PUSH20 0xFFFFFFFFFFFFFFFFFFFFFFFFFFFFFFFFFFFFFFFF AND PUSH20 0xFFFFFFFFFFFFFFFFFFFFFFFFFFFFFFFFFFFFFFFF AND DUP2 MSTORE PUSH1 0x20 ADD SWAP1 DUP2 MSTORE PUSH1 0x20 ADD PUSH1 0x0 KECCAK256 PUSH1 0x0 SWAP1 SSTORE JUMP JUMPDEST PUSH1 0x0 DUP1 PUSH1 0x0 DUP4 PUSH20 0xFFFFFFFFFFFFFFFFFFFFFFFFFFFFFFFFFFFFFFFF AND PUSH20 0xFFFFFFFFFFFFFFFFFFFFFFFFFFFFFFFFFFFFFFFF AND DUP2 MSTORE PUSH1 0x20 ADD SWAP1 DUP2 MSTORE PUSH1 0x20 ADD PUSH1 0x0 KECCAK256 SLOAD SWAP1 POP SWAP2 SWAP1 POP JUMP JUMPDEST PUSH1 0x0 DUP1 CALLER PUSH20 0xFFFFFFFFFFFFFFFFFFFFFFFFFFFFFFFFFFFFFFFF AND PUSH20 0xFFFFFFFFFFFFFFFFFFFFFFFFFFFFFFFFFFFFFFFF AND DUP2 MSTORE PUSH1 0x20 ADD SWAP1 DUP2 MSTORE PUSH1 0x20 ADD PUSH1 0x0 KECCAK256 PUSH1 0x0 DUP2 SLOAD DUP1 SWAP3 SWAP2 SWAP1 PUSH2 0x165 SWAP1 PUSH2 0x214 JUMP JUMPDEST SWAP2 SWAP1 POP SSTORE POP JUMP JUMPDEST PUSH1 0x0 DUP2 CALLDATALOAD SWAP1 POP PUSH2 0x17B DUP2 PUSH2 0x291 JUMP JUMPDEST SWAP3 SWAP2 POP POP JUMP JUMPDEST PUSH1 0x0 PUSH1 0x20 DUP3 DUP5 SUB SLT ISZERO PUSH2 0x197 JUMPI PUSH2 0x196 PUSH2 0x28C JUMP JUMPDEST JUMPDEST PUSH1 0x0 PUSH2 0x1A5 DUP5 DUP3 DUP6 ADD PUSH2 0x16C JUMP JUMPDEST SWAP2 POP POP SWAP3 SWAP2 POP POP JUMP JUMPDEST PUSH2 0x1B7 DUP2 PUSH2 0x20A JUMP JUMPDEST DUP3 MSTORE POP POP JUMP JUMPDEST PUSH1 0x0 PUSH1 0x20 DUP3 ADD SWAP1 POP PUSH2 0x1D2 PUSH1 0x0 DUP4 ADD DUP5 PUSH2 0x1AE JUMP JUMPDEST SWAP3 SWAP2 POP POP JUMP JUMPDEST PUSH1 0x0 PUSH2 0x1E3 DUP3 PUSH2 0x1EA JUMP JUMPDEST SWAP1 POP SWAP2 SWAP1 POP JUMP JUMPDEST PUSH1 0x0 PUSH20 0xFFFFFFFFFFFFFFFFFFFFFFFFFFFFFFFFFFFFFFFF DUP3 AND SWAP1 POP SWAP2 SWAP1 POP JUMP JUMPDEST PUSH1 0x0 DUP2 SWAP1 POP SWAP2 SWAP1 POP JUMP JUMPDEST PUSH1 0x0 PUSH2 0x21F DUP3 PUSH2 0x20A JUMP JUMPDEST SWAP2 POP PUSH32 0xFFFFFFFFFFFFFFFFFFFFFFFFFFFFFFFFFFFFFFFFFFFFFFFFFFFFFFFFFFFFFFFF DUP3 EQ ISZERO PUSH2 0x252 JUMPI PUSH2 0x251 PUSH2 0x25D JUMP JUMPDEST JUMPDEST PUSH1 0x1 DUP3 ADD SWAP1 POP SWAP2 SWAP1 POP JUMP JUMPDEST PUSH32 0x4E487B7100000000000000000000000000000000000000000000000000000000 PUSH1 0x0 MSTORE PUSH1 0x11 PUSH1 0x4 MSTORE PUSH1 0x24 PUSH1 0x0 REVERT JUMPDEST PUSH1 0x0 DUP1 REVERT JUMPDEST PUSH2 0x29A DUP2 PUSH2 0x1D8 JUMP JUMPDEST DUP2 EQ PUSH2 0x2A5 JUMPI PUSH1 0x0 DUP1 REVERT JUMPDEST POP JUMP INVALID LOG2 PUSH5 0x6970667358 0x22 SLT KECCAK256 0x2C 0xC COINBASE GASPRICE 0xC 0x23 BLOCKHASH 0x4D SUB EXTCODESIZE GT 0x2D 0xCB 0x1E PUSH10 0x50AE81F2306D12D00F76 0xCD 0xE6 0xC7 PUSH12 0xDCC5A264736F6C6343000807 STOP CALLER "
				},
				"gasEstimates": {
					"creation": {
						"codeDepositCost": "146800",
						"executionCost": "22393",
						"totalCost": "169193"
					},
					"external": {
						"deleteEntry()": "5220",
						"functionCall()": "24615",
						"functionCalls(address)": "2841"
					}
				},
				"methodIdentifiers": {
					"deleteEntry()": "2a773aaa",
					"functionCall()": "dab08f75",
					"functionCalls(address)": "826df326"
				}
			},
			"storageLayout": {
				"storage": [
					{
						"astId": 5,
						"contract": "0-Toygames/mapping.sol:Mapping",
						"label": "_functionCalls",
						"offset": 0,
						"slot": "0",
						"type": "t_mapping(t_address,t_uint256)"
					}
				],
				"types": {
					"t_address": {
						"encoding": "inplace",
						"label": "address",
						"numberOfBytes": "20"
					},
					"t_mapping(t_address,t_uint256)": {
						"encoding": "mapping",
						"key": "t_address",
						"label": "mapping(address => uint256)",
						"numberOfBytes": "32",
						"value": "t_uint256"
					},
					"t_uint256": {
						"encoding": "inplace",
						"label": "uint256",
						"numberOfBytes": "32"
					}
				}
			},
			"userdoc": {
				"kind": "user",
				"methods": {},
				"version": 1
			}
		}
	}
}